{
  "_format": "hh-sol-artifact-1",
  "contractName": "TokenBurnable",
  "sourceName": "contracts/token/TokenBurnable.sol",
  "abi": [
    {
      "inputs": [
        {
          "internalType": "string",
          "name": "name_",
          "type": "string"
        },
        {
          "internalType": "string",
          "name": "symbol_",
          "type": "string"
        },
        {
          "internalType": "uint256",
          "name": "totalSupply_",
          "type": "uint256"
        },
        {
          "internalType": "uint256",
          "name": "initAmount_",
          "type": "uint256"
        },
        {
          "internalType": "address",
          "name": "vault_",
          "type": "address"
        }
      ],
      "stateMutability": "nonpayable",
      "type": "constructor"
    },
    {
      "anonymous": false,
      "inputs": [
        {
          "indexed": true,
          "internalType": "address",
          "name": "owner",
          "type": "address"
        },
        {
          "indexed": true,
          "internalType": "address",
          "name": "spender",
          "type": "address"
        },
        {
          "indexed": false,
          "internalType": "uint256",
          "name": "value",
          "type": "uint256"
        }
      ],
      "name": "Approval",
      "type": "event"
    },
    {
      "anonymous": false,
      "inputs": [
        {
          "indexed": true,
          "internalType": "address",
          "name": "owner",
          "type": "address"
        },
        {
          "indexed": false,
          "internalType": "bool",
          "name": "",
          "type": "bool"
        }
      ],
      "name": "OwnerAddition",
      "type": "event"
    },
    {
      "anonymous": false,
      "inputs": [
        {
          "indexed": true,
          "internalType": "address",
          "name": "owner",
          "type": "address"
        },
        {
          "indexed": false,
          "internalType": "bool",
          "name": "",
          "type": "bool"
        }
      ],
      "name": "OwnerRemoval",
      "type": "event"
    },
    {
      "anonymous": false,
      "inputs": [
        {
          "indexed": true,
          "internalType": "address",
          "name": "from",
          "type": "address"
        },
        {
          "indexed": true,
          "internalType": "address",
          "name": "to",
          "type": "address"
        },
        {
          "indexed": false,
          "internalType": "uint256",
          "name": "value",
          "type": "uint256"
        }
      ],
      "name": "Transfer",
      "type": "event"
    },
    {
      "inputs": [
        {
          "internalType": "address",
          "name": "owner",
          "type": "address"
        }
      ],
      "name": "addOwner",
      "outputs": [],
      "stateMutability": "nonpayable",
      "type": "function"
    },
    {
      "inputs": [
        {
          "internalType": "address",
          "name": "owner",
          "type": "address"
        },
        {
          "internalType": "address",
          "name": "spender",
          "type": "address"
        }
      ],
      "name": "allowance",
      "outputs": [
        {
          "internalType": "uint256",
          "name": "",
          "type": "uint256"
        }
      ],
      "stateMutability": "view",
      "type": "function"
    },
    {
      "inputs": [
        {
          "internalType": "address",
          "name": "spender",
          "type": "address"
        },
        {
          "internalType": "uint256",
          "name": "amount",
          "type": "uint256"
        }
      ],
      "name": "approve",
      "outputs": [
        {
          "internalType": "bool",
          "name": "",
          "type": "bool"
        }
      ],
      "stateMutability": "nonpayable",
      "type": "function"
    },
    {
      "inputs": [
        {
          "internalType": "address",
          "name": "account",
          "type": "address"
        }
      ],
      "name": "balanceOf",
      "outputs": [
        {
          "internalType": "uint256",
          "name": "",
          "type": "uint256"
        }
      ],
      "stateMutability": "view",
      "type": "function"
    },
    {
      "inputs": [
        {
          "internalType": "uint256",
          "name": "amount",
          "type": "uint256"
        }
      ],
      "name": "burn",
      "outputs": [],
      "stateMutability": "nonpayable",
      "type": "function"
    },
    {
      "inputs": [
        {
          "internalType": "address",
          "name": "account",
          "type": "address"
        },
        {
          "internalType": "uint256",
          "name": "amount",
          "type": "uint256"
        }
      ],
      "name": "burnFrom",
      "outputs": [],
      "stateMutability": "nonpayable",
      "type": "function"
    },
    {
      "inputs": [],
      "name": "decimals",
      "outputs": [
        {
          "internalType": "uint8",
          "name": "",
          "type": "uint8"
        }
      ],
      "stateMutability": "view",
      "type": "function"
    },
    {
      "inputs": [
        {
          "internalType": "address",
          "name": "spender",
          "type": "address"
        },
        {
          "internalType": "uint256",
          "name": "subtractedValue",
          "type": "uint256"
        }
      ],
      "name": "decreaseAllowance",
      "outputs": [
        {
          "internalType": "bool",
          "name": "",
          "type": "bool"
        }
      ],
      "stateMutability": "nonpayable",
      "type": "function"
    },
    {
      "inputs": [
        {
          "internalType": "address",
          "name": "spender",
          "type": "address"
        },
        {
          "internalType": "uint256",
          "name": "addedValue",
          "type": "uint256"
        }
      ],
      "name": "increaseAllowance",
      "outputs": [
        {
          "internalType": "bool",
          "name": "",
          "type": "bool"
        }
      ],
      "stateMutability": "nonpayable",
      "type": "function"
    },
    {
      "inputs": [
        {
          "internalType": "address",
          "name": "",
          "type": "address"
        }
      ],
      "name": "isOwner",
      "outputs": [
        {
          "internalType": "bool",
          "name": "",
          "type": "bool"
        }
      ],
      "stateMutability": "view",
      "type": "function"
    },
    {
      "inputs": [],
      "name": "name",
      "outputs": [
        {
          "internalType": "string",
          "name": "",
          "type": "string"
        }
      ],
      "stateMutability": "view",
      "type": "function"
    },
    {
      "inputs": [
        {
          "internalType": "uint256",
          "name": "",
          "type": "uint256"
        }
      ],
      "name": "owners",
      "outputs": [
        {
          "internalType": "address",
          "name": "",
          "type": "address"
        }
      ],
      "stateMutability": "view",
      "type": "function"
    },
    {
      "inputs": [
        {
          "internalType": "address",
          "name": "owner",
          "type": "address"
        }
      ],
      "name": "removeOwner",
      "outputs": [],
      "stateMutability": "nonpayable",
      "type": "function"
    },
    {
      "inputs": [
        {
          "internalType": "address",
          "name": "owner",
          "type": "address"
        },
        {
          "internalType": "address",
          "name": "newOwner",
          "type": "address"
        }
      ],
      "name": "replaceOwner",
      "outputs": [],
      "stateMutability": "nonpayable",
      "type": "function"
    },
    {
      "inputs": [],
      "name": "symbol",
      "outputs": [
        {
          "internalType": "string",
          "name": "",
          "type": "string"
        }
      ],
      "stateMutability": "view",
      "type": "function"
    },
    {
      "inputs": [],
      "name": "totalSupply",
      "outputs": [
        {
          "internalType": "uint256",
          "name": "",
          "type": "uint256"
        }
      ],
      "stateMutability": "view",
      "type": "function"
    },
    {
      "inputs": [
        {
          "internalType": "address",
          "name": "to",
          "type": "address"
        },
        {
          "internalType": "uint256",
          "name": "amount",
          "type": "uint256"
        }
      ],
      "name": "transfer",
      "outputs": [
        {
          "internalType": "bool",
          "name": "",
          "type": "bool"
        }
      ],
      "stateMutability": "nonpayable",
      "type": "function"
    },
    {
      "inputs": [
        {
          "internalType": "address",
          "name": "from",
          "type": "address"
        },
        {
          "internalType": "address",
          "name": "to",
          "type": "address"
        },
        {
          "internalType": "uint256",
          "name": "amount",
          "type": "uint256"
        }
      ],
      "name": "transferFrom",
      "outputs": [
        {
          "internalType": "bool",
          "name": "",
          "type": "bool"
        }
      ],
      "stateMutability": "nonpayable",
      "type": "function"
    }
  ],
  "bytecode": "0x604060a08152346200059a5762001822803803806200001e816200059f565b928339810160a0828203126200059a5781516001600160401b0392908381116200059a578262000050918301620005c5565b9260209283830151908282116200059a576200006e918401620005c5565b85830151606084015160809094015191936001600160a01b039391929184831683036200059a5787518181116200048e5760039081549060019a8b83811c931680156200058f575b8b841014620005795781908b601f9485811162000520575b50508b90848311600114620004b057600092620004a4575b505060001982851b1c1916908b1b1782555b87519283116200048e5760049788548b81811c9116801562000483575b8b8210146200046e57908183869594931162000414575b508a918411600114620003a9576000936200039d575b5050828a1b92600019911b1c19161785555b336080528083111562000347576200016d813362000637565b8203918211620003325790620001839162000637565b608051163303620002f1573315620002be57336000526005825260ff8460002054166200027d573360005260058252836000208360ff198254161790556006549068010000000000000000821015620002685783820180600655821015620002535750600660009081528290200180546001600160a01b031916339081179091558351928352917f5a7f87c011fe7f44abaef0adbcd7b0592c00a465495fff5aad2824496b8f6e6f9190a25161112c9081620006f6823960805181818161011a0152818161059601526107cb0152f35b603290634e487b7160e01b6000525260246000fd5b604190634e487b7160e01b6000525260246000fd5b60649184519162461bcd60e51b8352820152601460248201527f6f776e657220616c7265616479206578697374730000000000000000000000006044820152fd5b60649184519162461bcd60e51b8352820152600f60248201526e1859191c995cdcc81a5cc81b9d5b1b608a1b6044820152fd5b60649184519162461bcd60e51b8352820152601360248201527f6d73672e73656e64657220213d2061646d696e000000000000000000000000006044820152fd5b601184634e487b7160e01b6000525260246000fd5b875162461bcd60e51b8152808601879052602a60248201527f746f74616c537570706c79206d75737420626520626967676572207468616e206044820152691a5b9a5d105b5bdd5b9d60b21b6064820152608490fd5b01519150388062000142565b91908b9450601f198416928a6000528b6000209360005b8d828210620003fd5750508511620003e2575b50505050811b01855562000154565b01519060f884600019921b161c1916905538808080620003d3565b8385015187558f98909601959384019301620003c0565b9091929350896000528a6000208380870160051c8201928d881062000464575b918e918897969594930160051c01915b828110620004545750506200012c565b600081558796508e910162000444565b9250819262000434565b60228a634e487b7160e01b6000525260246000fd5b90607f169062000115565b634e487b7160e01b600052604160045260246000fd5b015190503880620000e6565b60008681528d81208f9550929190601f198516908f5b828210620004ff5750508411620004e6575b505050811b018255620000f8565b015160001983871b60f8161c19169055388080620004d8565b91929395968291958786015181550195019301908f95949392918f620004c6565b909192508560005284826000209181860160051c83019386106200056f575b918f91869594930160051c01915b8281106200055f57508d9150620000ce565b600081558594508f91016200054d565b925081926200053f565b634e487b7160e01b600052602260045260246000fd5b92607f1692620000b6565b600080fd5b6040519190601f01601f191682016001600160401b038111838210176200048e57604052565b919080601f840112156200059a5782516001600160401b0381116200048e57602090620005fb601f8201601f191683016200059f565b928184528282870101116200059a5760005b8181106200062357508260009394955001015290565b85810183015184820184015282016200060d565b6001600160a01b0316908115620006b057600254908082018092116200069a5760207fddf252ad1be2c89b69c2b068fc378daa952ba7f163c4a11628f55a4df523b3ef9160009360025584845283825260408420818154019055604051908152a3565b634e487b7160e01b600052601160045260246000fd5b60405162461bcd60e51b815260206004820152601f60248201527f45524332303a206d696e7420746f20746865207a65726f2061646472657373006044820152606490fdfe60406080815260048036101561001457600080fd5b600090813560e01c908163025e7c27146109e057816306fdde03146108fa578163095ea7b3146108d0578163173825d91461079f57816318160ddd1461078057816323b872dd146107435781632f54bf6e14610707578163313ce567146106eb578163395093511461068557816342966c68146106675781637065cb481461056c57816370a082311461053657816379cc67901461050357816395d89b41146103d5578163a457c2d71461031757508063a9059cbb146102e6578063dd62ed3e146102995763e20056e6146100e857600080fd5b34610296578160031936011261029657610100610ab8565b90610109610ad3565b926001600160a01b038093610141827f0000000000000000000000000000000000000000000000000000000000000000163314610fa5565b169061014e821515610ff0565b8385169161015d831515610ff0565b808452600560205261017460ff8386205416611086565b828452600560205261018c60ff83862054161561103b565b835b6006548110156102675781866101a383610a23565b90549060031b1c16146101be576101b9906110d1565b61018e565b60209395507f5a7f87c011fe7f44abaef0adbcd7b0592c00a465495fff5aad2824496b8f6e6f94966101f261021292610a23565b90919082549060031b916001600160a01b03809116831b921b1916179055565b8086526005835281862060ff19908181541690558587526001838820918254161790557f91a22ccaf4e87f469af4e9e0c758ebeaab28a64ad7c7c7a7a3519b550540f62583835160018152a25160018152a280f35b507f5a7f87c011fe7f44abaef0adbcd7b0592c00a465495fff5aad2824496b8f6e6f9395506020929450610212565b80fd5b5090346102e257806003193601126102e257806020926102b7610ab8565b6102bf610ad3565b6001600160a01b0391821683526001865283832091168252845220549051908152f35b5080fd5b5090346102e257806003193601126102e257602090610310610306610ab8565b6024359033610ae9565b5160018152f35b91905034610296578260031936011261029657610332610ab8565b91836024359233815260016020528181206001600160a01b038616825260205220549082821061036c576020856103108585038733610c9d565b608490602086519162461bcd60e51b8352820152602560248201527f45524332303a2064656372656173656420616c6c6f77616e63652062656c6f7760448201527f207a65726f0000000000000000000000000000000000000000000000000000006064820152fd5b8284346102e257816003193601126102e257805190828454600181811c908083169283156104f9575b60209384841081146104e65783885287959493929181156104c75750600114610469575b50505003601f01601f191682019267ffffffffffffffff8411838510176104565750829182610452925282610a70565b0390f35b80604186634e487b7160e01b6024945252fd5b8888529193925086917f8a35acfbc15ff81a39ae7d344fd709f28e8600b4aa8c65c6b64bfe7fe36bd19b5b8284106104b15750505090601f1992601f92820101918193610422565b8054888501870152879450928501928101610494565b60ff1916848701525050151560051b830101905081601f601f19610422565b60248960228c634e487b7160e01b835252fd5b91607f16916103fe565b8284346102e2576003193601126102965761053361051f610ab8565b6024359061052e823383610dd1565b610e69565b80f35b8284346102e25760206003193601126102e257806020926001600160a01b0361055d610ab8565b16815280845220549051908152f35b9050823461066357602060031936011261066357610588610ab8565b6001600160a01b036105bd817f0000000000000000000000000000000000000000000000000000000000000000163314610fa5565b8116926105cb841515610ff0565b83855260056020526105e360ff84872054161561103b565b8385526005602052828520600160ff1982541617905560065490680100000000000000008210156106505750916106476020926101f28560017f5a7f87c011fe7f44abaef0adbcd7b0592c00a465495fff5aad2824496b8f6e6f9701600655610a23565b5160018152a280f35b856041602492634e487b7160e01b835252fd5b8280fd5b9050346102e25760206003193601126102e257610533903533610e69565b83833461029657816003193601126102965761069f610ab8565b33825260016020528282206001600160a01b0382168352602052828220549160243583018093116106d857602084610310858533610c9d565b80601186634e487b7160e01b6024945252fd5b8284346102e257816003193601126102e2576020905160128152f35b8284346102e25760206003193601126102e25760ff816020936001600160a01b03610730610ab8565b1681526005855220541690519015158152f35b8284346102e25760606003193601126102e257602090610310610764610ab8565b61076c610ad3565b6044359161077b833383610dd1565b610ae9565b8284346102e257816003193601126102e2576020906002549051908152f35b8284346102e25760206003193601126102e2576107ba610ab8565b916001600160a01b0380936107f2827f0000000000000000000000000000000000000000000000000000000000000000163314610fa5565b166107fe811515610ff0565b808252600560205261081560ff8484205416611086565b808252600560205282822060ff198154169055815b6006548110156108a257848261083f83610a23565b929054600393841b1c161461085d5750610858906110d1565b61082a565b947f91a22ccaf4e87f469af4e9e0c758ebeaab28a64ad7c7c7a7a3519b550540f625939561088e6020949693610a23565b81939154921b1b191690555160018152a280f35b50917f91a22ccaf4e87f469af4e9e0c758ebeaab28a64ad7c7c7a7a3519b550540f625919350602090610647565b8284346102e257806003193601126102e2576020906103106108f0610ab8565b6024359033610c9d565b8284346102e257816003193601126102e25780519082600354600181811c908083169283156109d6575b60209384841081146104e65783885287959493929181156104c757506001146109775750505003601f01601f191682019267ffffffffffffffff8411838510176104565750829182610452925282610a70565b600388529193925086917fc2575a0e9e593c00f959f8c92f12db2869c3395a3b0502d05e2516446f71f85b5b8284106109c05750505090601f1992601f92820101918193610422565b80548885018701528794509285019281016109a3565b91607f1691610924565b8391503461066357602060031936011261066357359160065483101561029657506001600160a01b03610a14602093610a23565b92905490519260031b1c168152f35b600654811015610a5a5760066000527ff652222313e28459528d920b65115c16c04f3efc82aaedc97be59f3f377c0d3f0190600090565b634e487b7160e01b600052603260045260246000fd5b60208082528251818301819052939260005b858110610aa457505050601f19601f8460006040809697860101520116010190565b818101830151848201604001528201610a82565b600435906001600160a01b0382168203610ace57565b600080fd5b602435906001600160a01b0382168203610ace57565b6001600160a01b03809116918215610c335716918215610bc957600082815280602052604081205491808310610b5f57604082827fddf252ad1be2c89b69c2b068fc378daa952ba7f163c4a11628f55a4df523b3ef958760209652828652038282205586815220818154019055604051908152a3565b608460405162461bcd60e51b815260206004820152602660248201527f45524332303a207472616e7366657220616d6f756e742065786365656473206260448201527f616c616e636500000000000000000000000000000000000000000000000000006064820152fd5b608460405162461bcd60e51b815260206004820152602360248201527f45524332303a207472616e7366657220746f20746865207a65726f206164647260448201527f65737300000000000000000000000000000000000000000000000000000000006064820152fd5b608460405162461bcd60e51b815260206004820152602560248201527f45524332303a207472616e736665722066726f6d20746865207a65726f20616460448201527f64726573730000000000000000000000000000000000000000000000000000006064820152fd5b6001600160a01b03809116918215610d685716918215610cfe5760207f8c5be1e5ebec7d5bd14f71427d1e84f3dd0314c0f7b2291e5b200ac8c7c3b925918360005260018252604060002085600052825280604060002055604051908152a3565b608460405162461bcd60e51b815260206004820152602260248201527f45524332303a20617070726f766520746f20746865207a65726f20616464726560448201527f73730000000000000000000000000000000000000000000000000000000000006064820152fd5b608460405162461bcd60e51b8152602060048201526024808201527f45524332303a20617070726f76652066726f6d20746865207a65726f2061646460448201527f72657373000000000000000000000000000000000000000000000000000000006064820152fd5b906001600160a01b0380831660005260016020526040600020908216600052602052604060002054926000198403610e0a575b50505050565b808410610e2557610e1c930391610c9d565b38808080610e04565b606460405162461bcd60e51b815260206004820152601d60248201527f45524332303a20696e73756666696369656e7420616c6c6f77616e63650000006044820152fd5b6001600160a01b03168015610f3b57600091818352826020526040832054818110610ed157817fddf252ad1be2c89b69c2b068fc378daa952ba7f163c4a11628f55a4df523b3ef926020928587528684520360408620558060025403600255604051908152a3565b608460405162461bcd60e51b815260206004820152602260248201527f45524332303a206275726e20616d6f756e7420657863656564732062616c616e60448201527f63650000000000000000000000000000000000000000000000000000000000006064820152fd5b608460405162461bcd60e51b815260206004820152602160248201527f45524332303a206275726e2066726f6d20746865207a65726f2061646472657360448201527f73000000000000000000000000000000000000000000000000000000000000006064820152fd5b15610fac57565b606460405162461bcd60e51b815260206004820152601360248201527f6d73672e73656e64657220213d2061646d696e000000000000000000000000006044820152fd5b15610ff757565b606460405162461bcd60e51b815260206004820152600f60248201527f61646472657373206973206e756c6c00000000000000000000000000000000006044820152fd5b1561104257565b606460405162461bcd60e51b815260206004820152601460248201527f6f776e657220616c7265616479206578697374730000000000000000000000006044820152fd5b1561108d57565b606460405162461bcd60e51b815260206004820152601460248201527f6f776e657220646f6573206e6f742065786973740000000000000000000000006044820152fd5b60001981146110e05760010190565b634e487b7160e01b600052601160045260246000fdfea26469706673582212200036dd9c08c7761cc92e9d26883f50af1e6c3daf9302a3367c4c6ab501bd66a764736f6c63430008120033",
  "linkReferences": {},
  "deployedLinkReferences": {}
}